{
  "contractName": "Tcr",
  "abi": [
    {
      "constant": true,
      "inputs": [],
      "name": "name",
      "outputs": [
        {
          "name": "",
          "type": "string"
        }
      ],
      "payable": false,
      "stateMutability": "view",
      "type": "function"
    },
    {
      "constant": true,
      "inputs": [],
      "name": "minDeposit",
      "outputs": [
        {
          "name": "",
          "type": "uint256"
        }
      ],
      "payable": false,
      "stateMutability": "view",
      "type": "function"
    },
    {
      "constant": true,
      "inputs": [],
      "name": "applyStageLen",
      "outputs": [
        {
          "name": "",
          "type": "uint256"
        }
      ],
      "payable": false,
      "stateMutability": "view",
      "type": "function"
    },
    {
      "constant": true,
      "inputs": [],
      "name": "pollNonce",
      "outputs": [
        {
          "name": "",
          "type": "uint256"
        }
      ],
      "payable": false,
      "stateMutability": "view",
      "type": "function"
    },
    {
      "constant": true,
      "inputs": [],
      "name": "commitStageLen",
      "outputs": [
        {
          "name": "",
          "type": "uint256"
        }
      ],
      "payable": false,
      "stateMutability": "view",
      "type": "function"
    },
    {
      "constant": true,
      "inputs": [
        {
          "name": "",
          "type": "uint256"
        }
      ],
      "name": "listingNames",
      "outputs": [
        {
          "name": "",
          "type": "string"
        }
      ],
      "payable": false,
      "stateMutability": "view",
      "type": "function"
    },
    {
      "constant": true,
      "inputs": [],
      "name": "token",
      "outputs": [
        {
          "name": "",
          "type": "address"
        }
      ],
      "payable": false,
      "stateMutability": "view",
      "type": "function"
    },
    {
      "inputs": [
        {
          "name": "_name",
          "type": "string"
        },
        {
          "name": "_token",
          "type": "address"
        },
        {
          "name": "_parameters",
          "type": "uint256[]"
        }
      ],
      "payable": false,
      "stateMutability": "nonpayable",
      "type": "constructor"
    },
    {
      "anonymous": false,
      "inputs": [
        {
          "indexed": true,
          "name": "listingHash",
          "type": "bytes32"
        },
        {
          "indexed": false,
          "name": "deposit",
          "type": "uint256"
        },
        {
          "indexed": false,
          "name": "data",
          "type": "string"
        },
        {
          "indexed": true,
          "name": "applicant",
          "type": "address"
        }
      ],
      "name": "_Application",
      "type": "event"
    },
    {
      "anonymous": false,
      "inputs": [
        {
          "indexed": true,
          "name": "listingHash",
          "type": "bytes32"
        },
        {
          "indexed": false,
          "name": "challengeId",
          "type": "uint256"
        },
        {
          "indexed": true,
          "name": "challenger",
          "type": "address"
        }
      ],
      "name": "_Challenge",
      "type": "event"
    },
    {
      "anonymous": false,
      "inputs": [
        {
          "indexed": true,
          "name": "listingHash",
          "type": "bytes32"
        },
        {
          "indexed": false,
          "name": "challengeId",
          "type": "uint256"
        },
        {
          "indexed": true,
          "name": "voter",
          "type": "address"
        }
      ],
      "name": "_Vote",
      "type": "event"
    },
    {
      "anonymous": false,
      "inputs": [
        {
          "indexed": true,
          "name": "listingHash",
          "type": "bytes32"
        },
        {
          "indexed": false,
          "name": "challengeId",
          "type": "uint256"
        },
        {
          "indexed": true,
          "name": "resolver",
          "type": "address"
        }
      ],
      "name": "_ResolveChallenge",
      "type": "event"
    },
    {
      "anonymous": false,
      "inputs": [
        {
          "indexed": true,
          "name": "challengeId",
          "type": "uint256"
        },
        {
          "indexed": false,
          "name": "reward",
          "type": "uint256"
        },
        {
          "indexed": true,
          "name": "voter",
          "type": "address"
        }
      ],
      "name": "_RewardClaimed",
      "type": "event"
    },
    {
      "constant": true,
      "inputs": [
        {
          "name": "_listingHash",
          "type": "bytes32"
        }
      ],
      "name": "isWhitelisted",
      "outputs": [
        {
          "name": "whitelisted",
          "type": "bool"
        }
      ],
      "payable": false,
      "stateMutability": "view",
      "type": "function"
    },
    {
      "constant": true,
      "inputs": [
        {
          "name": "_listingHash",
          "type": "bytes32"
        }
      ],
      "name": "appWasMade",
      "outputs": [
        {
          "name": "exists",
          "type": "bool"
        }
      ],
      "payable": false,
      "stateMutability": "view",
      "type": "function"
    },
    {
      "constant": true,
      "inputs": [],
      "name": "getAllListings",
      "outputs": [
        {
          "name": "",
          "type": "string[]"
        }
      ],
      "payable": false,
      "stateMutability": "view",
      "type": "function"
    },
    {
      "constant": true,
      "inputs": [
        {
          "name": "_listingHash",
          "type": "bytes32"
        }
      ],
      "name": "getListingDetails",
      "outputs": [
        {
          "name": "",
          "type": "bool"
        },
        {
          "name": "",
          "type": "address"
        },
        {
          "name": "",
          "type": "uint256"
        },
        {
          "name": "",
          "type": "string"
        }
      ],
      "payable": false,
      "stateMutability": "view",
      "type": "function"
    },
    {
      "constant": false,
      "inputs": [
        {
          "name": "_listingHash",
          "type": "bytes32"
        },
        {
          "name": "_amount",
          "type": "uint256"
        },
        {
          "name": "_data",
          "type": "string"
        }
      ],
      "name": "apply",
      "outputs": [],
      "payable": false,
      "stateMutability": "nonpayable",
      "type": "function"
    },
    {
      "constant": false,
      "inputs": [
        {
          "name": "_listingHash",
          "type": "bytes32"
        },
        {
          "name": "_amount",
          "type": "uint256"
        }
      ],
      "name": "challenge",
      "outputs": [
        {
          "name": "challengeId",
          "type": "uint256"
        }
      ],
      "payable": false,
      "stateMutability": "nonpayable",
      "type": "function"
    },
    {
      "constant": false,
      "inputs": [
        {
          "name": "_listingHash",
          "type": "bytes32"
        },
        {
          "name": "_amount",
          "type": "uint256"
        },
        {
          "name": "_choice",
          "type": "bool"
        }
      ],
      "name": "vote",
      "outputs": [],
      "payable": false,
      "stateMutability": "nonpayable",
      "type": "function"
    },
    {
      "constant": true,
      "inputs": [
        {
          "name": "_listingHash",
          "type": "bytes32"
        }
      ],
      "name": "canBeWhitelisted",
      "outputs": [
        {
          "name": "",
          "type": "bool"
        }
      ],
      "payable": false,
      "stateMutability": "view",
      "type": "function"
    },
    {
      "constant": false,
      "inputs": [
        {
          "name": "_listingHash",
          "type": "bytes32"
        }
      ],
      "name": "updateStatus",
      "outputs": [],
      "payable": false,
      "stateMutability": "nonpayable",
      "type": "function"
    },
    {
      "constant": false,
      "inputs": [
        {
          "name": "challengeId",
          "type": "uint256"
        }
      ],
      "name": "claimRewards",
      "outputs": [],
      "payable": false,
      "stateMutability": "nonpayable",
      "type": "function"
    }
  ],
  "bytecode": "0x60806040523480156200001157600080fd5b506040516200330e3803806200330e83398101806040526200003791908101906200036e565b60008273ffffffffffffffffffffffffffffffffffffffff16141580156200009757506000600460009054906101000a900473ffffffffffffffffffffffffffffffffffffffff1673ffffffffffffffffffffffffffffffffffffffff16145b1515620000db576040517f08c379a0000000000000000000000000000000000000000000000000000000008152600401620000d29062000453565b60405180910390fd5b81600460006101000a81548173ffffffffffffffffffffffffffffffffffffffff021916908373ffffffffffffffffffffffffffffffffffffffff160217905550826005908051906020019062000134929190620001a6565b508060008151811015156200014557fe5b906020019060200201516006819055508060018151811015156200016557fe5b906020019060200201516007819055508060028151811015156200018557fe5b90602001906020020151600881905550600060098190555050505062000559565b828054600181600116156101000203166002900490600052602060002090601f016020900481019282601f10620001e957805160ff19168380011785556200021a565b828001600101855582156200021a579182015b8281111562000219578251825591602001919060010190620001fc565b5b5090506200022991906200022d565b5090565b6200025291905b808211156200024e57600081600090555060010162000234565b5090565b90565b6000620002638251620004f9565b905092915050565b600082601f83011215156200027f57600080fd5b8151620002966200029082620004a3565b62000475565b91508181835260208401935060208101905083856020840282011115620002bc57600080fd5b60005b83811015620002f05781620002d5888262000358565b845260208401935060208301925050600181019050620002bf565b5050505092915050565b600082601f83011215156200030e57600080fd5b8151620003256200031f82620004cc565b62000475565b915080825260208301602083018583830111156200034257600080fd5b6200034f83828462000523565b50505092915050565b600062000366825162000519565b905092915050565b6000806000606084860312156200038457600080fd5b600084015167ffffffffffffffff8111156200039f57600080fd5b620003ad86828701620002fa565b9350506020620003c08682870162000255565b925050604084015167ffffffffffffffff811115620003de57600080fd5b620003ec868287016200026b565b9150509250925092565b6000602682527f546f6b656e20616464726573732073686f756c64206e6f74206265203020616460208301527f64726573732e00000000000000000000000000000000000000000000000000006040830152606082019050919050565b600060208201905081810360008301526200046e81620003f6565b9050919050565b6000604051905081810181811067ffffffffffffffff821117156200049957600080fd5b8060405250919050565b600067ffffffffffffffff821115620004bb57600080fd5b602082029050602081019050919050565b600067ffffffffffffffff821115620004e457600080fd5b601f19601f8301169050602081019050919050565b600073ffffffffffffffffffffffffffffffffffffffff82169050919050565b6000819050919050565b60005b838110156200054357808201518184015260208101905062000526565b8381111562000553576000848401525b50505050565b612da580620005696000396000f3006080604052600436106100f1576000357c0100000000000000000000000000000000000000000000000000000000900463ffffffff16806301a5e3fe146100f657806306fdde03146101335780630962ef791461015e5780632c729fd11461018757806341b3d185146101b0578063691a38ab146101db5780637b356561146102185780637f0733601461025857806389bb55c7146102835780638a59eb56146102ac5780638cf8151f146102d557806397508f3614610312578063a63dd1981461033d578063ae73ccec14610368578063d7ab802d14610393578063e2083c18146103d0578063fc0c546a1461040d575b600080fd5b34801561010257600080fd5b5061011d600480360361011891908101906122f3565b610438565b60405161012a9190612992565b60405180910390f35b34801561013f57600080fd5b5061014861046d565b6040516101559190612a14565b60405180910390f35b34801561016a57600080fd5b5061018560048036036101809190810190612413565b61050b565b005b34801561019357600080fd5b506101ae60048036036101a99190810190612358565b610882565b005b3480156101bc57600080fd5b506101c5610c2a565b6040516101d29190612c16565b60405180910390f35b3480156101e757600080fd5b5061020260048036036101fd91908101906122f3565b610c30565b60405161020f9190612992565b60405180910390f35b34801561022457600080fd5b5061023f600480360361023a91908101906122f3565b610cee565b60405161024f94939291906129ad565b60405180910390f35b34801561026457600080fd5b5061026d610ede565b60405161027a9190612c16565b60405180910390f35b34801561028f57600080fd5b506102aa60048036036102a591908101906123a7565b610ee4565b005b3480156102b857600080fd5b506102d360048036036102ce91908101906122f3565b61124c565b005b3480156102e157600080fd5b506102fc60048036036102f791908101906122f3565b6112a2565b6040516103099190612992565b60405180910390f35b34801561031e57600080fd5b506103276112cc565b6040516103349190612c16565b60405180910390f35b34801561034957600080fd5b506103526112d2565b60405161035f9190612c16565b60405180910390f35b34801561037457600080fd5b5061037d6112d8565b60405161038a9190612970565b60405180910390f35b34801561039f57600080fd5b506103ba60048036036103b59190810190612413565b61140d565b6040516103c79190612a14565b60405180910390f35b3480156103dc57600080fd5b506103f760048036036103f2919081019061231c565b6114c8565b6040516104049190612c16565b60405180910390f35b34801561041957600080fd5b50610422611900565b60405161042f91906129f9565b60405180910390f35b600060016000836000191660001916815260200190815260200160002060010160009054906101000a900460ff169050919050565b60058054600181600116156101000203166002900480601f0160208091040260200160405190810160405280929190818152602001828054600181600116156101000203166002900480156105035780601f106104d857610100808354040283529160200191610503565b820191906000526020600020905b8154815290600101906020018083116104e657829003601f168201915b505050505081565b6000806000806001151560008087815260200190815260200160002060000160149054906101000a900460ff16151514151561057c576040517f08c379a000000000000000000000000000000000000000000000000000000000815260040161057390612b96565b60405180910390fd5b6003600086815260200190815260200160002093508360040160003373ffffffffffffffffffffffffffffffffffffffff1673ffffffffffffffffffffffffffffffffffffffff1681526020019081526020016000209250600015158360020160009054906101000a900460ff16151514151561062e576040517f08c379a000000000000000000000000000000000000000000000000000000000815260040161062590612a56565b60405180910390fd5b8360030160009054906101000a900460ff16801561065a57508260000160009054906101000a900460ff165b8061068f57508360030160009054906101000a900460ff1615801561068e57508260000160009054906101000a900460ff16155b5b1561085e576106e783600101546106d9600080898152602001908152602001600020600301546000808a81526020019081526020016000206002015461192690919063ffffffff16565b61193c90919063ffffffff16565b915061070082846001015461197490919063ffffffff16565b9050600460009054906101000a900473ffffffffffffffffffffffffffffffffffffffff1673ffffffffffffffffffffffffffffffffffffffff1663a9059cbb33836040518363ffffffff167c010000000000000000000000000000000000000000000000000000000002815260040161077b929190612947565b602060405180830381600087803b15801561079557600080fd5b505af11580156107a9573d6000803e3d6000fd5b505050506040513d601f19601f820116820180604052506107cd91908101906122ca565b151561080e576040517f08c379a000000000000000000000000000000000000000000000000000000000815260040161080590612ad6565b60405180910390fd5b3373ffffffffffffffffffffffffffffffffffffffff16857f6f4c982acc31b0af2cf1dc1556f21c0325d893782d65e83c68a5534a33f59957836040516108559190612c16565b60405180910390a35b60018360020160006101000a81548160ff0219169083151502179055505050505050565b60008060016000866000191660001916815260200190815260200160002091506108ab856112a2565b806108c457508160010160009054906101000a900460ff165b1515610905576040517f08c379a00000000000000000000000000000000000000000000000000000000081526004016108fc90612b36565b60405180910390fd5b6000826003015411801561093d57506000808360030154815260200190815260200160002060000160149054906101000a900460ff16155b151561097e576040517f08c379a000000000000000000000000000000000000000000000000000000000815260040161097590612a96565b60405180910390fd5b600360008360030154815260200190815260200160002090504281600201541115156109df576040517f08c379a00000000000000000000000000000000000000000000000000000000081526004016109d690612b56565b60405180910390fd5b600460009054906101000a900473ffffffffffffffffffffffffffffffffffffffff1673ffffffffffffffffffffffffffffffffffffffff166323b872dd3330876040518463ffffffff167c0100000000000000000000000000000000000000000000000000000000028152600401610a5a93929190612910565b602060405180830381600087803b158015610a7457600080fd5b505af1158015610a88573d6000803e3d6000fd5b505050506040513d601f19601f82011682018060405250610aac91908101906122ca565b1515610aed576040517f08c379a0000000000000000000000000000000000000000000000000000000008152600401610ae490612bd6565b60405180910390fd5b8215610b0a57838160000160008282540192505081905550610b1d565b8381600101600082825401925050819055505b6060604051908101604052808415158152602001858152602001600015158152508160040160003373ffffffffffffffffffffffffffffffffffffffff1673ffffffffffffffffffffffffffffffffffffffff16815260200190815260200160002060008201518160000160006101000a81548160ff0219169083151502179055506020820151816001015560408201518160020160006101000a81548160ff0219169083151502179055509050503373ffffffffffffffffffffffffffffffffffffffff1685600019167f7a1c5ce18abad3692f6bdf85262d38c3ad4ee5cabf88020e5a0e4d6b841d83768460030154604051610c1b9190612c16565b60405180910390a35050505050565b60065481565b600080600160008460001916600019168152602001908152602001600020600301549050610c5d836112a2565b8015610c8657504260016000856000191660001916815260200190815260200160002060000154105b8015610c985750610c9683610438565b155b8015610cd557506000811480610cd457506001151560008083815260200190815260200160002060000160149054906101000a900460ff161515145b5b15610ce35760019150610ce8565b600091505b50919050565b60008060006060610cfd612064565b60016000876000191660001916815260200190815260200160002060e06040519081016040529081600082015481526020016001820160009054906101000a900460ff161515151581526020016001820160019054906101000a900473ffffffffffffffffffffffffffffffffffffffff1673ffffffffffffffffffffffffffffffffffffffff1673ffffffffffffffffffffffffffffffffffffffff1681526020016002820154815260200160038201548152602001600482018054600181600116156101000203166002900480601f016020809104026020016040519081016040528092919081815260200182805460018160011615610100020316600290048015610e4c5780601f10610e2157610100808354040283529160200191610e4c565b820191906000526020600020905b815481529060010190602001808311610e2f57829003601f168201915b505050505081526020016005820154815250509050610e6a866112a2565b80610e76575080602001515b1515610eb7576040517f08c379a0000000000000000000000000000000000000000000000000000000008152600401610eae90612b36565b60405180910390fd5b8060200151816040015182608001518360a001518090509450945094509450509193509193565b60075481565b6000610eef85610438565b151515610f31576040517f08c379a0000000000000000000000000000000000000000000000000000000008152600401610f2890612bf6565b60405180910390fd5b610f3a856112a2565b151515610f7c576040517f08c379a0000000000000000000000000000000000000000000000000000000008152600401610f7390612a36565b60405180910390fd5b6006548410151515610fc3576040517f08c379a0000000000000000000000000000000000000000000000000000000008152600401610fba90612b16565b60405180910390fd5b6001600086600019166000191681526020019081526020016000209050338160010160016101000a81548173ffffffffffffffffffffffffffffffffffffffff021916908373ffffffffffffffffffffffffffffffffffffffff16021790555082828260040191906110369291906120ba565b50600281600401908060018154018082558091505090600182039060005260206000200160009091929091909150908054600181600116156101000203166002900461108392919061213a565b505060016002805490500381600501819055506110ab6007544261197490919063ffffffff16565b8160000181905550838160020181905550600460009054906101000a900473ffffffffffffffffffffffffffffffffffffffff1673ffffffffffffffffffffffffffffffffffffffff166323b872dd8260010160019054906101000a900473ffffffffffffffffffffffffffffffffffffffff1630876040518463ffffffff167c010000000000000000000000000000000000000000000000000000000002815260040161115b93929190612910565b602060405180830381600087803b15801561117557600080fd5b505af1158015611189573d6000803e3d6000fd5b505050506040513d601f19601f820116820180604052506111ad91908101906122ca565b15156111ee576040517f08c379a00000000000000000000000000000000000000000000000000000000081526004016111e590612bd6565b60405180910390fd5b3373ffffffffffffffffffffffffffffffffffffffff1685600019167fe1cdd401be51ef2c8159945a96274b69ba482f2a5e2131700beeda434fd6d58f86868660405161123d93929190612c31565b60405180910390a35050505050565b61125581610c30565b15611295576001806000836000191660001916815260200190815260200160002060010160006101000a81548160ff02191690831515021790555061129f565b61129e81611990565b5b50565b60008060016000846000191660001916815260200190815260200160002060000154119050919050565b60095481565b60085481565b606080600060028054905060405190808252806020026020018201604052801561131657816020015b60608152602001906001900390816113015790505b509150600090505b6002805490508110156114055760028181548110151561133a57fe5b906000526020600020018054600181600116156101000203166002900480601f0160208091040260200160405190810160405280929190818152602001828054600181600116156101000203166002900480156113d85780601f106113ad576101008083540402835291602001916113d8565b820191906000526020600020905b8154815290600101906020018083116113bb57829003601f168201915b505050505082828151811015156113eb57fe5b90602001906020020181905250808060010191505061131e565b819250505090565b60028181548110151561141c57fe5b906000526020600020016000915090508054600181600116156101000203166002900480601f0160208091040260200160405190810160405280929190818152602001828054600181600116156101000203166002900480156114c05780601f10611495576101008083540402835291602001916114c0565b820191906000526020600020905b8154815290600101906020018083116114a357829003601f168201915b505050505081565b60008060016000856000191660001916815260200190815260200160002090506114f1846112a2565b8061150a57508060010160009054906101000a900460ff165b151561154b576040517f08c379a000000000000000000000000000000000000000000000000000000000815260040161154290612b36565b60405180910390fd5b60008160030154148061158157506000808260030154815260200190815260200160002060000160149054906101000a900460ff165b15156115c2576040517f08c379a00000000000000000000000000000000000000000000000000000000081526004016115b990612bb6565b60405180910390fd5b42816000015411151561160a576040517f08c379a000000000000000000000000000000000000000000000000000000000815260040161160190612af6565b60405180910390fd5b60016009540160098190555060a0604051908101604052803373ffffffffffffffffffffffffffffffffffffffff168152602001600015158152602001848152602001600081526020016000815250600080600954815260200190815260200160002060008201518160000160006101000a81548173ffffffffffffffffffffffffffffffffffffffff021916908373ffffffffffffffffffffffffffffffffffffffff16021790555060208201518160000160146101000a81548160ff02191690831515021790555060408201518160010155606082015181600201556080820151816003015590505060806040519081016040528060008152602001600081526020016117246008544261197490919063ffffffff16565b81526020016000151581525060036000600954815260200190815260200160002060008201518160000155602082015181600101556040820151816002015560608201518160030160006101000a81548160ff0219169083151502179055509050506009548160030181905550600460009054906101000a900473ffffffffffffffffffffffffffffffffffffffff1673ffffffffffffffffffffffffffffffffffffffff166323b872dd3330866040518463ffffffff167c010000000000000000000000000000000000000000000000000000000002815260040161180c93929190612910565b602060405180830381600087803b15801561182657600080fd5b505af115801561183a573d6000803e3d6000fd5b505050506040513d601f19601f8201168201806040525061185e91908101906122ca565b151561189f576040517f08c379a000000000000000000000000000000000000000000000000000000000815260040161189690612bd6565b60405180910390fd5b3373ffffffffffffffffffffffffffffffffffffffff1684600019167fc911f55bb4170a166467bde15c8799c1d2bb96a79f6bd9bc5cd3a4f05f768f6f6009546040516118ec9190612c16565b60405180910390a360095491505092915050565b600460009054906101000a900473ffffffffffffffffffffffffffffffffffffffff1681565b6000818381151561193357fe5b04905092915050565b60008083141561194f576000905061196e565b818302905081838281151561196057fe5b0414151561196a57fe5b8090505b92915050565b6000818301905082811015151561198757fe5b80905092915050565b611998612064565b600080600060016000866000191660001916815260200190815260200160002060e06040519081016040529081600082015481526020016001820160009054906101000a900460ff161515151581526020016001820160019054906101000a900473ffffffffffffffffffffffffffffffffffffffff1673ffffffffffffffffffffffffffffffffffffffff1673ffffffffffffffffffffffffffffffffffffffff1681526020016002820154815260200160038201548152602001600482018054600181600116156101000203166002900480601f016020809104026020016040519081016040528092919081815260200182805460018160011615610100020316600290048015611aec5780601f10611ac157610100808354040283529160200191611aec565b820191906000526020600020905b815481529060010190602001808311611acf57829003601f168201915b50505050508152602001600582015481525050935060008460800151118015611b3957506000808560800151815260200190815260200160002060000160149054906101000a900460ff16155b1515611b7a576040517f08c379a0000000000000000000000000000000000000000000000000000000008152600401611b7190612a96565b60405180910390fd5b83608001519250611b8a83611f3e565b9150600160008085815260200190815260200160002060000160146101000a81548160ff02191690831515021790555060008084815260200190815260200160002060000160009054906101000a900473ffffffffffffffffffffffffffffffffffffffff1690508115611caa5760036000848152602001908152602001600020600001546000808581526020019081526020016000206003018190555060036000848152602001908152602001600020600101546000808581526020019081526020016000206001015401600080858152602001908152602001600020600201819055506001806000876000191660001916815260200190815260200160002060010160006101000a81548160ff021916908315150217905550611ee4565b600460009054906101000a900473ffffffffffffffffffffffffffffffffffffffff1673ffffffffffffffffffffffffffffffffffffffff1663a9059cbb82600080878152602001908152602001600020600101546040518363ffffffff167c0100000000000000000000000000000000000000000000000000000000028152600401611d38929190612947565b602060405180830381600087803b158015611d5257600080fd5b505af1158015611d66573d6000803e3d6000fd5b505050506040513d601f19601f82011682018060405250611d8a91908101906122ca565b1515611dcb576040517f08c379a0000000000000000000000000000000000000000000000000000000008152600401611dc290612b76565b60405180910390fd5b6003600084815260200190815260200160002060010154600080858152602001908152602001600020600301819055506003600084815260200190815260200160002060000154846060015101600080858152602001908152602001600020600201819055506001600086600019166000191681526020019081526020016000206000808201600090556001820160006101000a81549060ff02191690556001820160016101000a81549073ffffffffffffffffffffffffffffffffffffffff021916905560028201600090556003820160009055600482016000611eb091906121c1565b6005820160009055505060028460c00151815481101515611ecd57fe5b906000526020600020016000611ee391906121c1565b5b3373ffffffffffffffffffffffffffffffffffffffff1685600019167f779e2848f275ef7b62be066e59dc34b2b8d79758079849859de844a3d9b9fb0d85604051611f2f9190612c16565b60405180910390a35050505050565b60008060006003600085815260200190815260200160002060020154111515611f9c576040517f08c379a0000000000000000000000000000000000000000000000000000000008152600401611f9390612a76565b60405180910390fd5b600360008481526020019081526020016000209050428160020154101515611ff9576040517f08c379a0000000000000000000000000000000000000000000000000000000008152600401611ff090612ab6565b60405180910390fd5b8060010154816000015410151561202c5760018160030160006101000a81548160ff02191690831515021790555061204a565b60008160030160006101000a81548160ff0219169083151502179055505b8060030160009054906101000a900460ff16915050919050565b60e06040519081016040528060008152602001600015158152602001600073ffffffffffffffffffffffffffffffffffffffff168152602001600081526020016000815260200160608152602001600081525090565b828054600181600116156101000203166002900490600052602060002090601f016020900481019282601f106120fb57803560ff1916838001178555612129565b82800160010185558215612129579182015b8281111561212857823582559160200191906001019061210d565b5b5090506121369190612209565b5090565b828054600181600116156101000203166002900490600052602060002090601f016020900481019282601f1061217357805485556121b0565b828001600101855582156121b057600052602060002091601f016020900482015b828111156121af578254825591600101919060010190612194565b5b5090506121bd9190612209565b5090565b50805460018160011615610100020316600290046000825580601f106121e75750612206565b601f0160209004906000526020600020908101906122059190612209565b5b50565b61222b91905b8082111561222757600081600090555060010161220f565b5090565b90565b600061223a8235612cd4565b905092915050565b600061224e8251612cd4565b905092915050565b60006122628235612ce0565b905092915050565b60008083601f840112151561227e57600080fd5b8235905067ffffffffffffffff81111561229757600080fd5b6020830191508360018202830111156122af57600080fd5b9250929050565b60006122c28235612cea565b905092915050565b6000602082840312156122dc57600080fd5b60006122ea84828501612242565b91505092915050565b60006020828403121561230557600080fd5b600061231384828501612256565b91505092915050565b6000806040838503121561232f57600080fd5b600061233d85828601612256565b925050602061234e858286016122b6565b9150509250929050565b60008060006060848603121561236d57600080fd5b600061237b86828701612256565b935050602061238c868287016122b6565b925050604061239d8682870161222e565b9150509250925092565b600080600080606085870312156123bd57600080fd5b60006123cb87828801612256565b94505060206123dc878288016122b6565b935050604085013567ffffffffffffffff8111156123f957600080fd5b6124058782880161226a565b925092505092959194509250565b60006020828403121561242557600080fd5b6000612433848285016122b6565b91505092915050565b61244581612c9e565b82525050565b600061245682612c70565b8084526020840193508360208202850161246f85612c63565b60005b848110156124a857838303885261248a838351612546565b925061249582612c91565b9150602088019750600181019050612472565b508196508694505050505092915050565b6124c281612cbe565b82525050565b6124d181612cf4565b82525050565b6124e081612d06565b82525050565b60008284526020840193506124fc838584612d18565b61250583612d5a565b840190509392505050565b600061251b82612c86565b80845261252f816020860160208601612d27565b61253881612d5a565b602085010191505092915050565b600061255182612c7b565b808452612565816020860160208601612d27565b61256e81612d5a565b602085010191505092915050565b6000602282527f4c697374696e6720697320616c726561647920696e206170706c79207374616760208301527f652e0000000000000000000000000000000000000000000000000000000000006040830152606082019050919050565b6000601f82527f566f74652072657761726420697320616c726561647920636c61696d65642e006020830152604082019050919050565b6000601482527f506f6c6c20646f6573206e6f742065786973742e0000000000000000000000006020830152604082019050919050565b6000601a82527f4c697374696e67206973206e6f74206368616c6c656e6765642e0000000000006020830152604082019050919050565b6000601882527f436f6d6d697420706572696f64206973206163746976652e00000000000000006020830152604082019050919050565b6000601e82527f566f74696e6720726577617264207472616e73666572206661696c65642e00006020830152604082019050919050565b6000601782527f4170706c7920737461676520686173207061737365642e0000000000000000006020830152604082019050919050565b6000602182527f4e6f7420656e6f756768207374616b6520666f72206170706c69636174696f6e60208301527f2e000000000000000000000000000000000000000000000000000000000000006040830152606082019050919050565b6000601782527f4c697374696e6720646f6573206e6f742065786973742e0000000000000000006020830152604082019050919050565b6000601982527f436f6d6d697420706572696f6420686173207061737365642e000000000000006020830152604082019050919050565b6000601e82527f4368616c6c656e6765207374616b652072657475726e206661696c65642e00006020830152604082019050919050565b6000601a82527f4368616c6c656e6765206973206e6f74207265736f6c7665642e0000000000006020830152604082019050919050565b6000601e82527f4c697374696e6720697320616c7265616479206368616c6c656e6765642e00006020830152604082019050919050565b6000601682527f546f6b656e207472616e73666572206661696c65642e000000000000000000006020830152604082019050919050565b6000601f82527f4c697374696e6720697320616c72656164792077686974656c69737465642e006020830152604082019050919050565b61290a81612cca565b82525050565b6000606082019050612925600083018661243c565b61293260208301856124d7565b61293f6040830184612901565b949350505050565b600060408201905061295c600083018561243c565b6129696020830184612901565b9392505050565b6000602082019050818103600083015261298a818461244b565b905092915050565b60006020820190506129a760008301846124b9565b92915050565b60006080820190506129c260008301876124b9565b6129cf602083018661243c565b6129dc6040830185612901565b81810360608301526129ee8184612510565b905095945050505050565b6000602082019050612a0e60008301846124c8565b92915050565b60006020820190508181036000830152612a2e8184612546565b905092915050565b60006020820190508181036000830152612a4f8161257c565b9050919050565b60006020820190508181036000830152612a6f816125d9565b9050919050565b60006020820190508181036000830152612a8f81612610565b9050919050565b60006020820190508181036000830152612aaf81612647565b9050919050565b60006020820190508181036000830152612acf8161267e565b9050919050565b60006020820190508181036000830152612aef816126b5565b9050919050565b60006020820190508181036000830152612b0f816126ec565b9050919050565b60006020820190508181036000830152612b2f81612723565b9050919050565b60006020820190508181036000830152612b4f81612780565b9050919050565b60006020820190508181036000830152612b6f816127b7565b9050919050565b60006020820190508181036000830152612b8f816127ee565b9050919050565b60006020820190508181036000830152612baf81612825565b9050919050565b60006020820190508181036000830152612bcf8161285c565b9050919050565b60006020820190508181036000830152612bef81612893565b9050919050565b60006020820190508181036000830152612c0f816128ca565b9050919050565b6000602082019050612c2b6000830184612901565b92915050565b6000604082019050612c466000830186612901565b8181036020830152612c598184866124e6565b9050949350505050565b6000602082019050919050565b600081519050919050565b600081519050919050565b600081519050919050565b6000602082019050919050565b600073ffffffffffffffffffffffffffffffffffffffff82169050919050565b60008115159050919050565b6000819050919050565b60008115159050919050565b6000819050919050565b6000819050919050565b6000612cff82612c9e565b9050919050565b6000612d1182612c9e565b9050919050565b82818337600083830152505050565b60005b83811015612d45578082015181840152602081019050612d2a565b83811115612d54576000848401525b50505050565b6000601f19601f83011690509190505600a265627a7a7230582035aff4c26f9dfa16638c2347044ba5d682bcbd2de7e1079b5663ea73492384f36c6578706572696d656e74616cf50037",
  "source": "// Most of the code in this contract is derived from the generic TCR implementation from Mike Goldin and (the adChain) team\n// This contract strips out most of the details and only keeps the basic TCR functionality (apply/propose, challenge, vote, resolve)\n// Consider this to be the \"hello world\" for TCR implementation\n// For real world usage, please refer to the generic TCR implementation\n// https://github.com/skmgoldin/tcr\n\npragma solidity ^0.4.24;\npragma experimental ABIEncoderV2;\n\nimport \"openzeppelin-solidity/contracts/token/ERC20/ERC20.sol\";\nimport \"openzeppelin-solidity/contracts/math/SafeMath.sol\";\n\ncontract Tcr {\n\n    using SafeMath for uint;\n\n    struct Listing {\n        uint applicationExpiry; // Expiration date of apply stage\n        bool whitelisted;       // Indicates registry status\n        address owner;          // Owner of Listing\n        uint deposit;           // Number of tokens in the listing\n        uint challengeId;       // the challenge id of the current challenge\n        string data;            // name of listing (for UI)\n        uint arrIndex;          // arrayIndex of listing in listingNames array (for deletion)\n    }\n\n    // instead of using the elegant PLCR voting, we are using just a list because this is *simple-TCR*\n    struct Vote {\n        bool value;\n        uint stake;\n        bool claimed;\n    }\n    \n    struct Poll {\n        uint votesFor;\n        uint votesAgainst;\n        uint commitEndDate;\n        bool passed;\n        mapping(address => Vote) votes; // revealed by default; no partial locking\n    }\n\n    struct Challenge {\n        address challenger;     // Owner of Challenge\n        bool resolved;          // Indication of if challenge is resolved\n        uint stake;             // Number of tokens at stake for either party during challenge\n        uint rewardPool;        // number of tokens from losing side - winning reward\n        uint totalTokens;       // number of tokens from winning side - to be returned\n    }\n\n    // Maps challengeIDs to associated challenge data\n    mapping(uint => Challenge) private challenges;\n\n    // Maps listingHashes to associated listingHash data\n    mapping(bytes32 => Listing) private listings;\n    string[] public listingNames;\n\n    // Maps polls to associated challenge\n    mapping(uint => Poll) private polls;\n\n    // Global Variables\n    ERC20 public token;\n    string public name;\n    uint public minDeposit;\n    uint public applyStageLen;\n    uint public commitStageLen;\n\n    uint constant private INITIAL_POLL_NONCE = 0;\n    uint public pollNonce;\n\n    // Events\n    event _Application(bytes32 indexed listingHash, uint deposit, string data, address indexed applicant);\n    event _Challenge(bytes32 indexed listingHash, uint challengeId, address indexed challenger);\n    event _Vote(bytes32 indexed listingHash, uint challengeId, address indexed voter);\n    event _ResolveChallenge(bytes32 indexed listingHash, uint challengeId, address indexed resolver);\n    event _RewardClaimed(uint indexed challengeId, uint reward, address indexed voter);\n\n    // using the constructor to initialize the TCR parameters\n    // again, to keep it simple, skipping the Parameterizer and ParameterizerFactory\n    constructor(\n        string _name,\n        address _token,\n        uint[] _parameters\n    ) public {\n        require(_token != 0 && address(token) == 0, \"Token address should not be 0 address.\");\n\n        token = ERC20(_token);\n        name = _name;\n\n        // minimum deposit for listing to be whitelisted\n        minDeposit = _parameters[0];\n\n        // period over which applicants wait to be whitelisted\n        applyStageLen = _parameters[1];\n\n        // length of commit period for voting\n        commitStageLen = _parameters[2];\n        \n        // Initialize the poll nonce\n        pollNonce = INITIAL_POLL_NONCE;\n    }\n\n    // returns whether a listing is already whitelisted\n    function isWhitelisted(bytes32 _listingHash) public view returns (bool whitelisted) {\n        return listings[_listingHash].whitelisted;\n    }\n\n    // returns if a listing is in apply stage\n    function appWasMade(bytes32 _listingHash) public view returns (bool exists) {\n        return listings[_listingHash].applicationExpiry > 0;\n    }\n\n    // get all listing names (for UI)\n    // not to be used in a production use case\n    function getAllListings() public view returns (string[]) {\n        string[] memory listingArr = new string[](listingNames.length);\n        for (uint256 i = 0; i < listingNames.length; i++) {\n            listingArr[i] = listingNames[i];\n        }\n        return listingArr;\n    }\n\n    // get details of a listing (for UI)\n    function getListingDetails(bytes32 _listingHash) public view returns (bool, address, uint, string) {\n        Listing memory listingIns = listings[_listingHash];\n\n        // Listing must be in apply stage or already on the whitelist\n        require(appWasMade(_listingHash) || listingIns.whitelisted, \"Listing does not exist.\");\n        \n        return (listingIns.whitelisted, listingIns.owner, listingIns.challengeId, listingIns.data);\n    }\n\n    // proposes a listing to be whitelisted\n    function apply(bytes32 _listingHash, uint _amount, string _data) external {\n        require(!isWhitelisted(_listingHash), \"Listing is already whitelisted.\");\n        require(!appWasMade(_listingHash), \"Listing is already in apply stage.\");\n        require(_amount >= minDeposit, \"Not enough stake for application.\");\n\n        // Sets owner\n        Listing storage listing = listings[_listingHash];\n        listing.owner = msg.sender;\n        listing.data = _data;\n        listingNames.push(listing.data);\n        listing.arrIndex = listingNames.length - 1;\n\n        // Sets apply stage end time\n        // now or block.timestamp is safe here (can live with ~15 sec approximation)\n        /* solium-disable-next-line security/no-block-members */\n        listing.applicationExpiry = now.add(applyStageLen);\n        listing.deposit = _amount;\n\n        // Transfer tokens from user\n        require(token.transferFrom(listing.owner, this, _amount), \"Token transfer failed.\");\n\n        emit _Application(_listingHash, _amount, _data, msg.sender);\n    }\n\n    // challenges a listing from being whitelisted\n    function challenge(bytes32 _listingHash, uint _amount)\n        external returns (uint challengeId) {\n        Listing storage listing = listings[_listingHash];\n\n        // Listing must be in apply stage or already on the whitelist\n        require(appWasMade(_listingHash) || listing.whitelisted, \"Listing does not exist.\");\n        \n        // Prevent multiple challenges\n        require(listing.challengeId == 0 || challenges[listing.challengeId].resolved, \"Listing is already challenged.\");\n\n        // check if apply stage is active\n        /* solium-disable-next-line security/no-block-members */\n        require(listing.applicationExpiry > now, \"Apply stage has passed.\");\n        \n        pollNonce = pollNonce + 1;\n        challenges[pollNonce] = Challenge({\n            challenger: msg.sender,\n            stake: _amount,\n            resolved: false,\n            totalTokens: 0,\n            rewardPool: 0\n        });\n\n        // create a new poll for the challenge\n        polls[pollNonce] = Poll({\n            votesFor: 0,\n            votesAgainst: 0,\n            passed: false,\n            commitEndDate: now.add(commitStageLen) /* solium-disable-line security/no-block-members */\n        });\n\n        // Updates listingHash to store most recent challenge\n        listing.challengeId = pollNonce;\n\n        // Transfer tokens from challenger\n        require(token.transferFrom(msg.sender, this, _amount), \"Token transfer failed.\");\n\n        emit _Challenge(_listingHash, pollNonce, msg.sender);\n        return pollNonce;\n    }\n\n    // commits a vote for/against a listing\n    // plcr voting is not being used here\n    // to keep it simple, we just store the choice as a bool - true is for and false is against\n    function vote(bytes32 _listingHash, uint _amount, bool _choice) public {\n        Listing storage listing = listings[_listingHash];\n\n        // Listing must be in apply stage or already on the whitelist\n        require(appWasMade(_listingHash) || listing.whitelisted, \"Listing does not exist.\");\n\n        // Check if listing is challenged\n        require(listing.challengeId > 0 && !challenges[listing.challengeId].resolved, \"Listing is not challenged.\");\n\n        Poll storage poll = polls[listing.challengeId];\n\n        // check if commit stage is active\n        /* solium-disable-next-line security/no-block-members */\n        require(poll.commitEndDate > now, \"Commit period has passed.\");\n\n        // Transfer tokens from voter\n        require(token.transferFrom(msg.sender, this, _amount), \"Token transfer failed.\");\n\n        if(_choice) {\n            poll.votesFor += _amount;\n        } else {\n            poll.votesAgainst += _amount;\n        }\n\n        poll.votes[msg.sender] = Vote({\n            value: _choice,\n            stake: _amount,\n            claimed: false\n        });\n\n        emit _Vote(_listingHash, listing.challengeId, msg.sender);\n    }\n\n    // check if the listing can be whitelisted\n    function canBeWhitelisted(bytes32 _listingHash) public view returns (bool) {\n        uint challengeId = listings[_listingHash].challengeId;\n\n        // Ensures that the application was made,\n        // the application period has ended,\n        // the listingHash can be whitelisted,\n        // and either: the challengeId == 0, or the challenge has been resolved.\n        /* solium-disable */\n        if (appWasMade(_listingHash) && \n            listings[_listingHash].applicationExpiry < now && \n            !isWhitelisted(_listingHash) &&\n            (challengeId == 0 || challenges[challengeId].resolved == true)) {\n            return true; \n        }\n\n        return false;\n    }\n\n    // updates the status of a listing\n    function updateStatus(bytes32 _listingHash) public {\n        if (canBeWhitelisted(_listingHash)) {\n            listings[_listingHash].whitelisted = true;\n        } else {\n            resolveChallenge(_listingHash);\n        }\n    }\n\n    // ends a poll and returns if the poll passed or not\n    function endPoll(uint challengeId) private returns (bool didPass) {\n        require(polls[challengeId].commitEndDate > 0, \"Poll does not exist.\");\n        Poll storage poll = polls[challengeId];\n\n        // check if commit stage is active\n        /* solium-disable-next-line security/no-block-members */\n        require(poll.commitEndDate < now, \"Commit period is active.\");\n\n        if (poll.votesFor >= poll.votesAgainst) {\n            poll.passed = true;\n        } else {\n            poll.passed = false;\n        }\n\n        return poll.passed;\n    }\n\n    // resolves a challenge and calculates rewards\n    function resolveChallenge(bytes32 _listingHash) private {\n        // Check if listing is challenged\n        Listing memory listing = listings[_listingHash];\n        require(listing.challengeId > 0 && !challenges[listing.challengeId].resolved, \"Listing is not challenged.\");\n\n        uint challengeId = listing.challengeId;\n\n        // end the poll\n        bool pollPassed = endPoll(challengeId);\n\n        // updated challenge status\n        challenges[challengeId].resolved = true;\n\n        address challenger = challenges[challengeId].challenger;\n\n        // Case: challenge failed\n        if (pollPassed) {\n            challenges[challengeId].totalTokens = polls[challengeId].votesFor;\n            challenges[challengeId].rewardPool = challenges[challengeId].stake + polls[challengeId].votesAgainst;\n            listings[_listingHash].whitelisted = true;\n        } else { // Case: challenge succeeded\n            // give back the challenge stake to the challenger\n            require(token.transfer(challenger, challenges[challengeId].stake), \"Challenge stake return failed.\");\n            challenges[challengeId].totalTokens = polls[challengeId].votesAgainst;\n            challenges[challengeId].rewardPool = listing.deposit + polls[challengeId].votesFor;\n            delete listings[_listingHash];\n            delete listingNames[listing.arrIndex];\n        }\n\n        emit _ResolveChallenge(_listingHash, challengeId, msg.sender);\n    }\n\n    // claim rewards for a vote\n    function claimRewards(uint challengeId) public {\n        // check if challenge is resolved\n        require(challenges[challengeId].resolved == true, \"Challenge is not resolved.\");\n        \n        Poll storage poll = polls[challengeId];\n        Vote storage voteInstance = poll.votes[msg.sender];\n        \n        // check if vote reward is already claimed\n        require(voteInstance.claimed == false, \"Vote reward is already claimed.\");\n\n        // if winning party, calculate reward and transfer\n        if((poll.passed && voteInstance.value) || (!poll.passed && !voteInstance.value)) {\n            uint reward = (challenges[challengeId].rewardPool.div(challenges[challengeId].totalTokens)).mul(voteInstance.stake);\n            uint total = voteInstance.stake.add(reward);\n            require(token.transfer(msg.sender, total), \"Voting reward transfer failed.\");\n            emit _RewardClaimed(challengeId, total, msg.sender);\n        }\n\n        voteInstance.claimed = true;\n    }\n}",
  "sourcePath": "/Users/gautam/code/simple-tcr/contracts/tcr.sol",
  "compiler": {
    "name": "solc",
    "version": "0.4.24+commit.e67f0147.Emscripten.clang"
  },
  "schemaVersion": "2.0.1",
  "updatedAt": "2018-10-21T21:17:49.580Z"
}