{
  "contractName": "Tcr",
  "abi": [
    {
      "constant": true,
      "inputs": [],
      "name": "name",
      "outputs": [
        {
          "name": "",
          "type": "string"
        }
      ],
      "payable": false,
      "stateMutability": "view",
      "type": "function"
    },
    {
      "constant": true,
      "inputs": [],
      "name": "minDeposit",
      "outputs": [
        {
          "name": "",
          "type": "uint256"
        }
      ],
      "payable": false,
      "stateMutability": "view",
      "type": "function"
    },
    {
      "constant": true,
      "inputs": [],
      "name": "applyStageLen",
      "outputs": [
        {
          "name": "",
          "type": "uint256"
        }
      ],
      "payable": false,
      "stateMutability": "view",
      "type": "function"
    },
    {
      "constant": true,
      "inputs": [],
      "name": "pollNonce",
      "outputs": [
        {
          "name": "",
          "type": "uint256"
        }
      ],
      "payable": false,
      "stateMutability": "view",
      "type": "function"
    },
    {
      "constant": true,
      "inputs": [],
      "name": "commitStageLen",
      "outputs": [
        {
          "name": "",
          "type": "uint256"
        }
      ],
      "payable": false,
      "stateMutability": "view",
      "type": "function"
    },
    {
      "constant": true,
      "inputs": [
        {
          "name": "",
          "type": "uint256"
        }
      ],
      "name": "listingNames",
      "outputs": [
        {
          "name": "",
          "type": "string"
        }
      ],
      "payable": false,
      "stateMutability": "view",
      "type": "function"
    },
    {
      "constant": true,
      "inputs": [],
      "name": "token",
      "outputs": [
        {
          "name": "",
          "type": "address"
        }
      ],
      "payable": false,
      "stateMutability": "view",
      "type": "function"
    },
    {
      "inputs": [
        {
          "name": "_name",
          "type": "string"
        },
        {
          "name": "_token",
          "type": "address"
        },
        {
          "name": "_parameters",
          "type": "uint256[]"
        }
      ],
      "payable": false,
      "stateMutability": "nonpayable",
      "type": "constructor"
    },
    {
      "anonymous": false,
      "inputs": [
        {
          "indexed": true,
          "name": "listingHash",
          "type": "bytes32"
        },
        {
          "indexed": false,
          "name": "deposit",
          "type": "uint256"
        },
        {
          "indexed": false,
          "name": "data",
          "type": "string"
        },
        {
          "indexed": true,
          "name": "applicant",
          "type": "address"
        }
      ],
      "name": "_Application",
      "type": "event"
    },
    {
      "anonymous": false,
      "inputs": [
        {
          "indexed": true,
          "name": "listingHash",
          "type": "bytes32"
        },
        {
          "indexed": false,
          "name": "challengeId",
          "type": "uint256"
        },
        {
          "indexed": true,
          "name": "challenger",
          "type": "address"
        }
      ],
      "name": "_Challenge",
      "type": "event"
    },
    {
      "anonymous": false,
      "inputs": [
        {
          "indexed": true,
          "name": "listingHash",
          "type": "bytes32"
        },
        {
          "indexed": false,
          "name": "challengeId",
          "type": "uint256"
        },
        {
          "indexed": true,
          "name": "voter",
          "type": "address"
        }
      ],
      "name": "_Vote",
      "type": "event"
    },
    {
      "anonymous": false,
      "inputs": [
        {
          "indexed": true,
          "name": "listingHash",
          "type": "bytes32"
        },
        {
          "indexed": false,
          "name": "challengeId",
          "type": "uint256"
        },
        {
          "indexed": true,
          "name": "resolver",
          "type": "address"
        }
      ],
      "name": "_ResolveChallenge",
      "type": "event"
    },
    {
      "anonymous": false,
      "inputs": [
        {
          "indexed": true,
          "name": "challengeId",
          "type": "uint256"
        },
        {
          "indexed": false,
          "name": "reward",
          "type": "uint256"
        },
        {
          "indexed": true,
          "name": "voter",
          "type": "address"
        }
      ],
      "name": "_RewardClaimed",
      "type": "event"
    },
    {
      "constant": true,
      "inputs": [
        {
          "name": "_listingHash",
          "type": "bytes32"
        }
      ],
      "name": "isWhitelisted",
      "outputs": [
        {
          "name": "whitelisted",
          "type": "bool"
        }
      ],
      "payable": false,
      "stateMutability": "view",
      "type": "function"
    },
    {
      "constant": true,
      "inputs": [
        {
          "name": "_listingHash",
          "type": "bytes32"
        }
      ],
      "name": "appWasMade",
      "outputs": [
        {
          "name": "exists",
          "type": "bool"
        }
      ],
      "payable": false,
      "stateMutability": "view",
      "type": "function"
    },
    {
      "constant": true,
      "inputs": [],
      "name": "getAllListings",
      "outputs": [
        {
          "name": "",
          "type": "string[]"
        }
      ],
      "payable": false,
      "stateMutability": "view",
      "type": "function"
    },
    {
      "constant": true,
      "inputs": [],
      "name": "getDetails",
      "outputs": [
        {
          "name": "",
          "type": "string"
        },
        {
          "name": "",
          "type": "address"
        },
        {
          "name": "",
          "type": "uint256"
        },
        {
          "name": "",
          "type": "uint256"
        },
        {
          "name": "",
          "type": "uint256"
        }
      ],
      "payable": false,
      "stateMutability": "view",
      "type": "function"
    },
    {
      "constant": true,
      "inputs": [
        {
          "name": "_listingHash",
          "type": "bytes32"
        }
      ],
      "name": "getListingDetails",
      "outputs": [
        {
          "name": "",
          "type": "bool"
        },
        {
          "name": "",
          "type": "address"
        },
        {
          "name": "",
          "type": "uint256"
        },
        {
          "name": "",
          "type": "uint256"
        },
        {
          "name": "",
          "type": "string"
        }
      ],
      "payable": false,
      "stateMutability": "view",
      "type": "function"
    },
    {
      "constant": false,
      "inputs": [
        {
          "name": "_listingHash",
          "type": "bytes32"
        },
        {
          "name": "_amount",
          "type": "uint256"
        },
        {
          "name": "_data",
          "type": "string"
        }
      ],
      "name": "apply",
      "outputs": [],
      "payable": false,
      "stateMutability": "nonpayable",
      "type": "function"
    },
    {
      "constant": false,
      "inputs": [
        {
          "name": "_listingHash",
          "type": "bytes32"
        },
        {
          "name": "_amount",
          "type": "uint256"
        }
      ],
      "name": "challenge",
      "outputs": [
        {
          "name": "challengeId",
          "type": "uint256"
        }
      ],
      "payable": false,
      "stateMutability": "nonpayable",
      "type": "function"
    },
    {
      "constant": false,
      "inputs": [
        {
          "name": "_listingHash",
          "type": "bytes32"
        },
        {
          "name": "_amount",
          "type": "uint256"
        },
        {
          "name": "_choice",
          "type": "bool"
        }
      ],
      "name": "vote",
      "outputs": [],
      "payable": false,
      "stateMutability": "nonpayable",
      "type": "function"
    },
    {
      "constant": true,
      "inputs": [
        {
          "name": "_listingHash",
          "type": "bytes32"
        }
      ],
      "name": "canBeWhitelisted",
      "outputs": [
        {
          "name": "",
          "type": "bool"
        }
      ],
      "payable": false,
      "stateMutability": "view",
      "type": "function"
    },
    {
      "constant": false,
      "inputs": [
        {
          "name": "_listingHash",
          "type": "bytes32"
        }
      ],
      "name": "updateStatus",
      "outputs": [],
      "payable": false,
      "stateMutability": "nonpayable",
      "type": "function"
    },
    {
      "constant": false,
      "inputs": [
        {
          "name": "challengeId",
          "type": "uint256"
        }
      ],
      "name": "claimRewards",
      "outputs": [],
      "payable": false,
      "stateMutability": "nonpayable",
      "type": "function"
    }
  ],
  "bytecode": "0x60806040523480156200001157600080fd5b50604051620035673803806200356783398101806040526200003791908101906200036e565b60008273ffffffffffffffffffffffffffffffffffffffff16141580156200009757506000600460009054906101000a900473ffffffffffffffffffffffffffffffffffffffff1673ffffffffffffffffffffffffffffffffffffffff16145b1515620000db576040517f08c379a0000000000000000000000000000000000000000000000000000000008152600401620000d29062000453565b60405180910390fd5b81600460006101000a81548173ffffffffffffffffffffffffffffffffffffffff021916908373ffffffffffffffffffffffffffffffffffffffff160217905550826005908051906020019062000134929190620001a6565b508060008151811015156200014557fe5b906020019060200201516006819055508060018151811015156200016557fe5b906020019060200201516007819055508060028151811015156200018557fe5b90602001906020020151600881905550600060098190555050505062000559565b828054600181600116156101000203166002900490600052602060002090601f016020900481019282601f10620001e957805160ff19168380011785556200021a565b828001600101855582156200021a579182015b8281111562000219578251825591602001919060010190620001fc565b5b5090506200022991906200022d565b5090565b6200025291905b808211156200024e57600081600090555060010162000234565b5090565b90565b6000620002638251620004f9565b905092915050565b600082601f83011215156200027f57600080fd5b8151620002966200029082620004a3565b62000475565b91508181835260208401935060208101905083856020840282011115620002bc57600080fd5b60005b83811015620002f05781620002d5888262000358565b845260208401935060208301925050600181019050620002bf565b5050505092915050565b600082601f83011215156200030e57600080fd5b8151620003256200031f82620004cc565b62000475565b915080825260208301602083018583830111156200034257600080fd5b6200034f83828462000523565b50505092915050565b600062000366825162000519565b905092915050565b6000806000606084860312156200038457600080fd5b600084015167ffffffffffffffff8111156200039f57600080fd5b620003ad86828701620002fa565b9350506020620003c08682870162000255565b925050604084015167ffffffffffffffff811115620003de57600080fd5b620003ec868287016200026b565b9150509250925092565b6000602682527f546f6b656e20616464726573732073686f756c64206e6f74206265203020616460208301527f64726573732e00000000000000000000000000000000000000000000000000006040830152606082019050919050565b600060208201905081810360008301526200046e81620003f6565b9050919050565b6000604051905081810181811067ffffffffffffffff821117156200049957600080fd5b8060405250919050565b600067ffffffffffffffff821115620004bb57600080fd5b602082029050602081019050919050565b600067ffffffffffffffff821115620004e457600080fd5b601f19601f8301169050602081019050919050565b600073ffffffffffffffffffffffffffffffffffffffff82169050919050565b6000819050919050565b60005b838110156200054357808201518184015260208101905062000526565b8381111562000553576000848401525b50505050565b612ffe80620005696000396000f3006080604052600436106100fc576000357c0100000000000000000000000000000000000000000000000000000000900463ffffffff16806301a5e3fe1461010157806306fdde031461013e5780630962ef79146101695780632c729fd11461019257806341b3d185146101bb578063691a38ab146101e65780637b356561146102235780637f0733601461026457806389bb55c71461028f5780638a59eb56146102b85780638cf8151f146102e157806397508f361461031e578063a63dd19814610349578063ae73ccec14610374578063d7ab802d1461039f578063e2083c18146103dc578063fbbf93a014610419578063fc0c546a14610448575b600080fd5b34801561010d57600080fd5b5061012860048036036101239190810190612467565b610473565b6040516101359190612b63565b60405180910390f35b34801561014a57600080fd5b506101536104a8565b6040516101609190612bf3565b60405180910390f35b34801561017557600080fd5b50610190600480360361018b9190810190612587565b610546565b005b34801561019e57600080fd5b506101b960048036036101b491908101906124cc565b6108bd565b005b3480156101c757600080fd5b506101d0610c65565b6040516101dd9190612e6f565b60405180910390f35b3480156101f257600080fd5b5061020d60048036036102089190810190612467565b610c6b565b60405161021a9190612b63565b60405180910390f35b34801561022f57600080fd5b5061024a60048036036102459190810190612467565b610d29565b60405161025b959493929190612b7e565b60405180910390f35b34801561027057600080fd5b50610279610f23565b6040516102869190612e6f565b60405180910390f35b34801561029b57600080fd5b506102b660048036036102b1919081019061251b565b610f29565b005b3480156102c457600080fd5b506102df60048036036102da9190810190612467565b611291565b005b3480156102ed57600080fd5b5061030860048036036103039190810190612467565b6112e7565b6040516103159190612b63565b60405180910390f35b34801561032a57600080fd5b50610333611311565b6040516103409190612e6f565b60405180910390f35b34801561035557600080fd5b5061035e611317565b60405161036b9190612e6f565b60405180910390f35b34801561038057600080fd5b5061038961131d565b6040516103969190612b41565b60405180910390f35b3480156103ab57600080fd5b506103c660048036036103c19190810190612587565b611452565b6040516103d39190612bf3565b60405180910390f35b3480156103e857600080fd5b5061040360048036036103fe9190810190612490565b61150d565b6040516104109190612e6f565b60405180910390f35b34801561042557600080fd5b5061042e61198e565b60405161043f959493929190612c15565b60405180910390f35b34801561045457600080fd5b5061045d611a74565b60405161046a9190612bd8565b60405180910390f35b600060016000836000191660001916815260200190815260200160002060010160009054906101000a900460ff169050919050565b60058054600181600116156101000203166002900480601f01602080910402602001604051908101604052809291908181526020018280546001816001161561010002031660029004801561053e5780601f106105135761010080835404028352916020019161053e565b820191906000526020600020905b81548152906001019060200180831161052157829003601f168201915b505050505081565b6000806000806001151560008087815260200190815260200160002060000160149054906101000a900460ff1615151415156105b7576040517f08c379a00000000000000000000000000000000000000000000000000000000081526004016105ae90612def565b60405180910390fd5b6003600086815260200190815260200160002093508360040160003373ffffffffffffffffffffffffffffffffffffffff1673ffffffffffffffffffffffffffffffffffffffff1681526020019081526020016000209250600015158360020160009054906101000a900460ff161515141515610669576040517f08c379a000000000000000000000000000000000000000000000000000000000815260040161066090612c8f565b60405180910390fd5b8360030160009054906101000a900460ff16801561069557508260000160009054906101000a900460ff165b806106ca57508360030160009054906101000a900460ff161580156106c957508260000160009054906101000a900460ff16155b5b15610899576107228360010154610714600080898152602001908152602001600020600301546000808a815260200190815260200160002060020154611a9a90919063ffffffff16565b611ab090919063ffffffff16565b915061073b828460010154611ae890919063ffffffff16565b9050600460009054906101000a900473ffffffffffffffffffffffffffffffffffffffff1673ffffffffffffffffffffffffffffffffffffffff1663a9059cbb33836040518363ffffffff167c01000000000000000000000000000000000000000000000000000000000281526004016107b6929190612b18565b602060405180830381600087803b1580156107d057600080fd5b505af11580156107e4573d6000803e3d6000fd5b505050506040513d601f19601f82011682018060405250610808919081019061243e565b1515610849576040517f08c379a000000000000000000000000000000000000000000000000000000000815260040161084090612d0f565b60405180910390fd5b3373ffffffffffffffffffffffffffffffffffffffff16857f6f4c982acc31b0af2cf1dc1556f21c0325d893782d65e83c68a5534a33f59957836040516108909190612e6f565b60405180910390a35b60018360020160006101000a81548160ff0219169083151502179055505050505050565b60008060016000866000191660001916815260200190815260200160002091506108e6856112e7565b806108ff57508160010160009054906101000a900460ff165b1515610940576040517f08c379a000000000000000000000000000000000000000000000000000000000815260040161093790612d6f565b60405180910390fd5b6000826003015411801561097857506000808360030154815260200190815260200160002060000160149054906101000a900460ff16155b15156109b9576040517f08c379a00000000000000000000000000000000000000000000000000000000081526004016109b090612ccf565b60405180910390fd5b60036000836003015481526020019081526020016000209050428160020154111515610a1a576040517f08c379a0000000000000000000000000000000000000000000000000000000008152600401610a1190612d8f565b60405180910390fd5b600460009054906101000a900473ffffffffffffffffffffffffffffffffffffffff1673ffffffffffffffffffffffffffffffffffffffff166323b872dd3330876040518463ffffffff167c0100000000000000000000000000000000000000000000000000000000028152600401610a9593929190612ae1565b602060405180830381600087803b158015610aaf57600080fd5b505af1158015610ac3573d6000803e3d6000fd5b505050506040513d601f19601f82011682018060405250610ae7919081019061243e565b1515610b28576040517f08c379a0000000000000000000000000000000000000000000000000000000008152600401610b1f90612e2f565b60405180910390fd5b8215610b4557838160000160008282540192505081905550610b58565b8381600101600082825401925050819055505b6060604051908101604052808415158152602001858152602001600015158152508160040160003373ffffffffffffffffffffffffffffffffffffffff1673ffffffffffffffffffffffffffffffffffffffff16815260200190815260200160002060008201518160000160006101000a81548160ff0219169083151502179055506020820151816001015560408201518160020160006101000a81548160ff0219169083151502179055509050503373ffffffffffffffffffffffffffffffffffffffff1685600019167f7a1c5ce18abad3692f6bdf85262d38c3ad4ee5cabf88020e5a0e4d6b841d83768460030154604051610c569190612e6f565b60405180910390a35050505050565b60065481565b600080600160008460001916600019168152602001908152602001600020600301549050610c98836112e7565b8015610cc157504260016000856000191660001916815260200190815260200160002060000154105b8015610cd35750610cd183610473565b155b8015610d1057506000811480610d0f57506001151560008083815260200190815260200160002060000160149054906101000a900460ff161515145b5b15610d1e5760019150610d23565b600091505b50919050565b6000806000806060610d396121d8565b60016000886000191660001916815260200190815260200160002060e06040519081016040529081600082015481526020016001820160009054906101000a900460ff161515151581526020016001820160019054906101000a900473ffffffffffffffffffffffffffffffffffffffff1673ffffffffffffffffffffffffffffffffffffffff1673ffffffffffffffffffffffffffffffffffffffff1681526020016002820154815260200160038201548152602001600482018054600181600116156101000203166002900480601f016020809104026020016040519081016040528092919081815260200182805460018160011615610100020316600290048015610e885780601f10610e5d57610100808354040283529160200191610e88565b820191906000526020600020905b815481529060010190602001808311610e6b57829003601f168201915b505050505081526020016005820154815250509050610ea6876112e7565b80610eb2575080602001515b1515610ef3576040517f08c379a0000000000000000000000000000000000000000000000000000000008152600401610eea90612d6f565b60405180910390fd5b80602001518160400151826060015183608001518460a00151809050955095509550955095505091939590929450565b60075481565b6000610f3485610473565b151515610f76576040517f08c379a0000000000000000000000000000000000000000000000000000000008152600401610f6d90612e4f565b60405180910390fd5b610f7f856112e7565b151515610fc1576040517f08c379a0000000000000000000000000000000000000000000000000000000008152600401610fb890612c6f565b60405180910390fd5b6006548410151515611008576040517f08c379a0000000000000000000000000000000000000000000000000000000008152600401610fff90612d4f565b60405180910390fd5b6001600086600019166000191681526020019081526020016000209050338160010160016101000a81548173ffffffffffffffffffffffffffffffffffffffff021916908373ffffffffffffffffffffffffffffffffffffffff160217905550828282600401919061107b92919061222e565b5060028160040190806001815401808255809150509060018203906000526020600020016000909192909190915090805460018160011615610100020316600290046110c89291906122ae565b505060016002805490500381600501819055506110f060075442611ae890919063ffffffff16565b8160000181905550838160020181905550600460009054906101000a900473ffffffffffffffffffffffffffffffffffffffff1673ffffffffffffffffffffffffffffffffffffffff166323b872dd8260010160019054906101000a900473ffffffffffffffffffffffffffffffffffffffff1630876040518463ffffffff167c01000000000000000000000000000000000000000000000000000000000281526004016111a093929190612ae1565b602060405180830381600087803b1580156111ba57600080fd5b505af11580156111ce573d6000803e3d6000fd5b505050506040513d601f19601f820116820180604052506111f2919081019061243e565b1515611233576040517f08c379a000000000000000000000000000000000000000000000000000000000815260040161122a90612e2f565b60405180910390fd5b3373ffffffffffffffffffffffffffffffffffffffff1685600019167fe1cdd401be51ef2c8159945a96274b69ba482f2a5e2131700beeda434fd6d58f86868660405161128293929190612e8a565b60405180910390a35050505050565b61129a81610c6b565b156112da576001806000836000191660001916815260200190815260200160002060010160006101000a81548160ff0219169083151502179055506112e4565b6112e381611b04565b5b50565b60008060016000846000191660001916815260200190815260200160002060000154119050919050565b60095481565b60085481565b606080600060028054905060405190808252806020026020018201604052801561135b57816020015b60608152602001906001900390816113465790505b509150600090505b60028054905081101561144a5760028181548110151561137f57fe5b906000526020600020018054600181600116156101000203166002900480601f01602080910402602001604051908101604052809291908181526020018280546001816001161561010002031660029004801561141d5780601f106113f25761010080835404028352916020019161141d565b820191906000526020600020905b81548152906001019060200180831161140057829003601f168201915b5050505050828281518110151561143057fe5b906020019060200201819052508080600101915050611363565b819250505090565b60028181548110151561146157fe5b906000526020600020016000915090508054600181600116156101000203166002900480601f0160208091040260200160405190810160405280929190818152602001828054600181600116156101000203166002900480156115055780601f106114da57610100808354040283529160200191611505565b820191906000526020600020905b8154815290600101906020018083116114e857829003601f168201915b505050505081565b6000806001600085600019166000191681526020019081526020016000209050611536846112e7565b8061154f57508060010160009054906101000a900460ff165b1515611590576040517f08c379a000000000000000000000000000000000000000000000000000000000815260040161158790612d6f565b60405180910390fd5b6000816003015414806115c657506000808260030154815260200190815260200160002060000160149054906101000a900460ff165b1515611607576040517f08c379a00000000000000000000000000000000000000000000000000000000081526004016115fe90612e0f565b60405180910390fd5b42816000015411151561164f576040517f08c379a000000000000000000000000000000000000000000000000000000000815260040161164690612d2f565b60405180910390fd5b80600201548310151515611698576040517f08c379a000000000000000000000000000000000000000000000000000000000815260040161168f90612dcf565b60405180910390fd5b60016009540160098190555060a0604051908101604052803373ffffffffffffffffffffffffffffffffffffffff168152602001600015158152602001848152602001600081526020016000815250600080600954815260200190815260200160002060008201518160000160006101000a81548173ffffffffffffffffffffffffffffffffffffffff021916908373ffffffffffffffffffffffffffffffffffffffff16021790555060208201518160000160146101000a81548160ff02191690831515021790555060408201518160010155606082015181600201556080820151816003015590505060806040519081016040528060008152602001600081526020016117b260085442611ae890919063ffffffff16565b81526020016000151581525060036000600954815260200190815260200160002060008201518160000155602082015181600101556040820151816002015560608201518160030160006101000a81548160ff0219169083151502179055509050506009548160030181905550600460009054906101000a900473ffffffffffffffffffffffffffffffffffffffff1673ffffffffffffffffffffffffffffffffffffffff166323b872dd3330866040518463ffffffff167c010000000000000000000000000000000000000000000000000000000002815260040161189a93929190612ae1565b602060405180830381600087803b1580156118b457600080fd5b505af11580156118c8573d6000803e3d6000fd5b505050506040513d601f19601f820116820180604052506118ec919081019061243e565b151561192d576040517f08c379a000000000000000000000000000000000000000000000000000000000815260040161192490612e2f565b60405180910390fd5b3373ffffffffffffffffffffffffffffffffffffffff1684600019167fc911f55bb4170a166467bde15c8799c1d2bb96a79f6bd9bc5cd3a4f05f768f6f60095460405161197a9190612e6f565b60405180910390a360095491505092915050565b60606000806000806005600460009054906101000a900473ffffffffffffffffffffffffffffffffffffffff16600654600754600854848054600181600116156101000203166002900480601f016020809104026020016040519081016040528092919081815260200182805460018160011615610100020316600290048015611a595780601f10611a2e57610100808354040283529160200191611a59565b820191906000526020600020905b815481529060010190602001808311611a3c57829003601f168201915b50505050509450839350945094509450945094509091929394565b600460009054906101000a900473ffffffffffffffffffffffffffffffffffffffff1681565b60008183811515611aa757fe5b04905092915050565b600080831415611ac35760009050611ae2565b8183029050818382811515611ad457fe5b04141515611ade57fe5b8090505b92915050565b60008183019050828110151515611afb57fe5b80905092915050565b611b0c6121d8565b600080600060016000866000191660001916815260200190815260200160002060e06040519081016040529081600082015481526020016001820160009054906101000a900460ff161515151581526020016001820160019054906101000a900473ffffffffffffffffffffffffffffffffffffffff1673ffffffffffffffffffffffffffffffffffffffff1673ffffffffffffffffffffffffffffffffffffffff1681526020016002820154815260200160038201548152602001600482018054600181600116156101000203166002900480601f016020809104026020016040519081016040528092919081815260200182805460018160011615610100020316600290048015611c605780601f10611c3557610100808354040283529160200191611c60565b820191906000526020600020905b815481529060010190602001808311611c4357829003601f168201915b50505050508152602001600582015481525050935060008460800151118015611cad57506000808560800151815260200190815260200160002060000160149054906101000a900460ff16155b1515611cee576040517f08c379a0000000000000000000000000000000000000000000000000000000008152600401611ce590612ccf565b60405180910390fd5b83608001519250611cfe836120b2565b9150600160008085815260200190815260200160002060000160146101000a81548160ff02191690831515021790555060008084815260200190815260200160002060000160009054906101000a900473ffffffffffffffffffffffffffffffffffffffff1690508115611e1e5760036000848152602001908152602001600020600001546000808581526020019081526020016000206003018190555060036000848152602001908152602001600020600101546000808581526020019081526020016000206001015401600080858152602001908152602001600020600201819055506001806000876000191660001916815260200190815260200160002060010160006101000a81548160ff021916908315150217905550612058565b600460009054906101000a900473ffffffffffffffffffffffffffffffffffffffff1673ffffffffffffffffffffffffffffffffffffffff1663a9059cbb82600080878152602001908152602001600020600101546040518363ffffffff167c0100000000000000000000000000000000000000000000000000000000028152600401611eac929190612b18565b602060405180830381600087803b158015611ec657600080fd5b505af1158015611eda573d6000803e3d6000fd5b505050506040513d601f19601f82011682018060405250611efe919081019061243e565b1515611f3f576040517f08c379a0000000000000000000000000000000000000000000000000000000008152600401611f3690612daf565b60405180910390fd5b6003600084815260200190815260200160002060010154600080858152602001908152602001600020600301819055506003600084815260200190815260200160002060000154846060015101600080858152602001908152602001600020600201819055506001600086600019166000191681526020019081526020016000206000808201600090556001820160006101000a81549060ff02191690556001820160016101000a81549073ffffffffffffffffffffffffffffffffffffffff0219169055600282016000905560038201600090556004820160006120249190612335565b6005820160009055505060028460c0015181548110151561204157fe5b9060005260206000200160006120579190612335565b5b3373ffffffffffffffffffffffffffffffffffffffff1685600019167f779e2848f275ef7b62be066e59dc34b2b8d79758079849859de844a3d9b9fb0d856040516120a39190612e6f565b60405180910390a35050505050565b60008060006003600085815260200190815260200160002060020154111515612110576040517f08c379a000000000000000000000000000000000000000000000000000000000815260040161210790612caf565b60405180910390fd5b60036000848152602001908152602001600020905042816002015410151561216d576040517f08c379a000000000000000000000000000000000000000000000000000000000815260040161216490612cef565b60405180910390fd5b806001015481600001541015156121a05760018160030160006101000a81548160ff0219169083151502179055506121be565b60008160030160006101000a81548160ff0219169083151502179055505b8060030160009054906101000a900460ff16915050919050565b60e06040519081016040528060008152602001600015158152602001600073ffffffffffffffffffffffffffffffffffffffff168152602001600081526020016000815260200160608152602001600081525090565b828054600181600116156101000203166002900490600052602060002090601f016020900481019282601f1061226f57803560ff191683800117855561229d565b8280016001018555821561229d579182015b8281111561229c578235825591602001919060010190612281565b5b5090506122aa919061237d565b5090565b828054600181600116156101000203166002900490600052602060002090601f016020900481019282601f106122e75780548555612324565b8280016001018555821561232457600052602060002091601f016020900482015b82811115612323578254825591600101919060010190612308565b5b509050612331919061237d565b5090565b50805460018160011615610100020316600290046000825580601f1061235b575061237a565b601f016020900490600052602060002090810190612379919061237d565b5b50565b61239f91905b8082111561239b576000816000905550600101612383565b5090565b90565b60006123ae8235612f2d565b905092915050565b60006123c28251612f2d565b905092915050565b60006123d68235612f39565b905092915050565b60008083601f84011215156123f257600080fd5b8235905067ffffffffffffffff81111561240b57600080fd5b60208301915083600182028301111561242357600080fd5b9250929050565b60006124368235612f43565b905092915050565b60006020828403121561245057600080fd5b600061245e848285016123b6565b91505092915050565b60006020828403121561247957600080fd5b6000612487848285016123ca565b91505092915050565b600080604083850312156124a357600080fd5b60006124b1858286016123ca565b92505060206124c28582860161242a565b9150509250929050565b6000806000606084860312156124e157600080fd5b60006124ef868287016123ca565b93505060206125008682870161242a565b9250506040612511868287016123a2565b9150509250925092565b6000806000806060858703121561253157600080fd5b600061253f878288016123ca565b94505060206125508782880161242a565b935050604085013567ffffffffffffffff81111561256d57600080fd5b612579878288016123de565b925092505092959194509250565b60006020828403121561259957600080fd5b60006125a78482850161242a565b91505092915050565b6125b981612ef7565b82525050565b60006125ca82612ec9565b808452602084019350836020820285016125e385612ebc565b60005b8481101561261c5783830388526125fe8383516126ba565b925061260982612eea565b91506020880197506001810190506125e6565b508196508694505050505092915050565b61263681612f17565b82525050565b61264581612f4d565b82525050565b61265481612f5f565b82525050565b6000828452602084019350612670838584612f71565b61267983612fb3565b840190509392505050565b600061268f82612edf565b8084526126a3816020860160208601612f80565b6126ac81612fb3565b602085010191505092915050565b60006126c582612ed4565b8084526126d9816020860160208601612f80565b6126e281612fb3565b602085010191505092915050565b6000602282527f4c697374696e6720697320616c726561647920696e206170706c79207374616760208301527f652e0000000000000000000000000000000000000000000000000000000000006040830152606082019050919050565b6000601f82527f566f74652072657761726420697320616c726561647920636c61696d65642e006020830152604082019050919050565b6000601482527f506f6c6c20646f6573206e6f742065786973742e0000000000000000000000006020830152604082019050919050565b6000601a82527f4c697374696e67206973206e6f74206368616c6c656e6765642e0000000000006020830152604082019050919050565b6000601882527f436f6d6d697420706572696f64206973206163746976652e00000000000000006020830152604082019050919050565b6000601e82527f566f74696e6720726577617264207472616e73666572206661696c65642e00006020830152604082019050919050565b6000601782527f4170706c7920737461676520686173207061737365642e0000000000000000006020830152604082019050919050565b6000602182527f4e6f7420656e6f756768207374616b6520666f72206170706c69636174696f6e60208301527f2e000000000000000000000000000000000000000000000000000000000000006040830152606082019050919050565b6000601782527f4c697374696e6720646f6573206e6f742065786973742e0000000000000000006020830152604082019050919050565b6000601982527f436f6d6d697420706572696f6420686173207061737365642e000000000000006020830152604082019050919050565b6000601e82527f4368616c6c656e6765207374616b652072657475726e206661696c65642e00006020830152604082019050919050565b6000602682527f4e6f7420656e6f756768207374616b652070617373656420666f72206368616c60208301527f6c656e67652e00000000000000000000000000000000000000000000000000006040830152606082019050919050565b6000601a82527f4368616c6c656e6765206973206e6f74207265736f6c7665642e0000000000006020830152604082019050919050565b6000601e82527f4c697374696e6720697320616c7265616479206368616c6c656e6765642e00006020830152604082019050919050565b6000601682527f546f6b656e207472616e73666572206661696c65642e000000000000000000006020830152604082019050919050565b6000601f82527f4c697374696e6720697320616c72656164792077686974656c69737465642e006020830152604082019050919050565b612adb81612f23565b82525050565b6000606082019050612af660008301866125b0565b612b03602083018561264b565b612b106040830184612ad2565b949350505050565b6000604082019050612b2d60008301856125b0565b612b3a6020830184612ad2565b9392505050565b60006020820190508181036000830152612b5b81846125bf565b905092915050565b6000602082019050612b78600083018461262d565b92915050565b600060a082019050612b93600083018861262d565b612ba060208301876125b0565b612bad6040830186612ad2565b612bba6060830185612ad2565b8181036080830152612bcc8184612684565b90509695505050505050565b6000602082019050612bed600083018461263c565b92915050565b60006020820190508181036000830152612c0d81846126ba565b905092915050565b600060a0820190508181036000830152612c2f8188612684565b9050612c3e60208301876125b0565b612c4b6040830186612ad2565b612c586060830185612ad2565b612c656080830184612ad2565b9695505050505050565b60006020820190508181036000830152612c88816126f0565b9050919050565b60006020820190508181036000830152612ca88161274d565b9050919050565b60006020820190508181036000830152612cc881612784565b9050919050565b60006020820190508181036000830152612ce8816127bb565b9050919050565b60006020820190508181036000830152612d08816127f2565b9050919050565b60006020820190508181036000830152612d2881612829565b9050919050565b60006020820190508181036000830152612d4881612860565b9050919050565b60006020820190508181036000830152612d6881612897565b9050919050565b60006020820190508181036000830152612d88816128f4565b9050919050565b60006020820190508181036000830152612da88161292b565b9050919050565b60006020820190508181036000830152612dc881612962565b9050919050565b60006020820190508181036000830152612de881612999565b9050919050565b60006020820190508181036000830152612e08816129f6565b9050919050565b60006020820190508181036000830152612e2881612a2d565b9050919050565b60006020820190508181036000830152612e4881612a64565b9050919050565b60006020820190508181036000830152612e6881612a9b565b9050919050565b6000602082019050612e846000830184612ad2565b92915050565b6000604082019050612e9f6000830186612ad2565b8181036020830152612eb281848661265a565b9050949350505050565b6000602082019050919050565b600081519050919050565b600081519050919050565b600081519050919050565b6000602082019050919050565b600073ffffffffffffffffffffffffffffffffffffffff82169050919050565b60008115159050919050565b6000819050919050565b60008115159050919050565b6000819050919050565b6000819050919050565b6000612f5882612ef7565b9050919050565b6000612f6a82612ef7565b9050919050565b82818337600083830152505050565b60005b83811015612f9e578082015181840152602081019050612f83565b83811115612fad576000848401525b50505050565b6000601f19601f83011690509190505600a265627a7a7230582007464aa1111590c171ef60d28267a65416197865f6d76eb67cbc0eccb1e36a036c6578706572696d656e74616cf50037",
  "source": "// Most of the code in this contract is derived from the generic TCR implementation from Mike Goldin and (the adChain) team\n// This contract strips out most of the details and only keeps the basic TCR functionality (apply/propose, challenge, vote, resolve)\n// Consider this to be the \"hello world\" for TCR implementation\n// For real world usage, please refer to the generic TCR implementation\n// https://github.com/skmgoldin/tcr\n\npragma solidity ^0.4.24;\npragma experimental ABIEncoderV2;\n\nimport \"openzeppelin-solidity/contracts/token/ERC20/ERC20.sol\";\nimport \"openzeppelin-solidity/contracts/math/SafeMath.sol\";\n\ncontract Tcr {\n\n    using SafeMath for uint;\n\n    struct Listing {\n        uint applicationExpiry; // Expiration date of apply stage\n        bool whitelisted;       // Indicates registry status\n        address owner;          // Owner of Listing\n        uint deposit;           // Number of tokens in the listing\n        uint challengeId;       // the challenge id of the current challenge\n        string data;            // name of listing (for UI)\n        uint arrIndex;          // arrayIndex of listing in listingNames array (for deletion)\n    }\n\n    // instead of using the elegant PLCR voting, we are using just a list because this is *simple-TCR*\n    struct Vote {\n        bool value;\n        uint stake;\n        bool claimed;\n    }\n    \n    struct Poll {\n        uint votesFor;\n        uint votesAgainst;\n        uint commitEndDate;\n        bool passed;\n        mapping(address => Vote) votes; // revealed by default; no partial locking\n    }\n\n    struct Challenge {\n        address challenger;     // Owner of Challenge\n        bool resolved;          // Indication of if challenge is resolved\n        uint stake;             // Number of tokens at stake for either party during challenge\n        uint rewardPool;        // number of tokens from losing side - winning reward\n        uint totalTokens;       // number of tokens from winning side - to be returned\n    }\n\n    // Maps challengeIDs to associated challenge data\n    mapping(uint => Challenge) private challenges;\n\n    // Maps listingHashes to associated listingHash data\n    mapping(bytes32 => Listing) private listings;\n    string[] public listingNames;\n\n    // Maps polls to associated challenge\n    mapping(uint => Poll) private polls;\n\n    // Global Variables\n    ERC20 public token;\n    string public name;\n    uint public minDeposit;\n    uint public applyStageLen;\n    uint public commitStageLen;\n\n    uint constant private INITIAL_POLL_NONCE = 0;\n    uint public pollNonce;\n\n    // Events\n    event _Application(bytes32 indexed listingHash, uint deposit, string data, address indexed applicant);\n    event _Challenge(bytes32 indexed listingHash, uint challengeId, address indexed challenger);\n    event _Vote(bytes32 indexed listingHash, uint challengeId, address indexed voter);\n    event _ResolveChallenge(bytes32 indexed listingHash, uint challengeId, address indexed resolver);\n    event _RewardClaimed(uint indexed challengeId, uint reward, address indexed voter);\n\n    // using the constructor to initialize the TCR parameters\n    // again, to keep it simple, skipping the Parameterizer and ParameterizerFactory\n    constructor(\n        string _name,\n        address _token,\n        uint[] _parameters\n    ) public {\n        require(_token != 0 && address(token) == 0, \"Token address should not be 0 address.\");\n\n        token = ERC20(_token);\n        name = _name;\n\n        // minimum deposit for listing to be whitelisted\n        minDeposit = _parameters[0];\n\n        // period over which applicants wait to be whitelisted\n        applyStageLen = _parameters[1];\n\n        // length of commit period for voting\n        commitStageLen = _parameters[2];\n        \n        // Initialize the poll nonce\n        pollNonce = INITIAL_POLL_NONCE;\n    }\n\n    // returns whether a listing is already whitelisted\n    function isWhitelisted(bytes32 _listingHash) public view returns (bool whitelisted) {\n        return listings[_listingHash].whitelisted;\n    }\n\n    // returns if a listing is in apply stage\n    function appWasMade(bytes32 _listingHash) public view returns (bool exists) {\n        return listings[_listingHash].applicationExpiry > 0;\n    }\n\n    // get all listing names (for UI)\n    // not to be used in a production use case\n    function getAllListings() public view returns (string[]) {\n        string[] memory listingArr = new string[](listingNames.length);\n        for (uint256 i = 0; i < listingNames.length; i++) {\n            listingArr[i] = listingNames[i];\n        }\n        return listingArr;\n    }\n\n    // get details of this registry (for UI)\n    function getDetails() public view returns (string, address, uint, uint, uint) {\n        return (name, token, minDeposit, applyStageLen, commitStageLen);\n    }\n\n    // get details of a listing (for UI)\n    function getListingDetails(bytes32 _listingHash) public view returns (bool, address, uint, uint, string) {\n        Listing memory listingIns = listings[_listingHash];\n\n        // Listing must be in apply stage or already on the whitelist\n        require(appWasMade(_listingHash) || listingIns.whitelisted, \"Listing does not exist.\");\n        \n        return (listingIns.whitelisted, listingIns.owner, listingIns.deposit, listingIns.challengeId, listingIns.data);\n    }\n\n    // proposes a listing to be whitelisted\n    function apply(bytes32 _listingHash, uint _amount, string _data) external {\n        require(!isWhitelisted(_listingHash), \"Listing is already whitelisted.\");\n        require(!appWasMade(_listingHash), \"Listing is already in apply stage.\");\n        require(_amount >= minDeposit, \"Not enough stake for application.\");\n\n        // Sets owner\n        Listing storage listing = listings[_listingHash];\n        listing.owner = msg.sender;\n        listing.data = _data;\n        listingNames.push(listing.data);\n        listing.arrIndex = listingNames.length - 1;\n\n        // Sets apply stage end time\n        // now or block.timestamp is safe here (can live with ~15 sec approximation)\n        /* solium-disable-next-line security/no-block-members */\n        listing.applicationExpiry = now.add(applyStageLen);\n        listing.deposit = _amount;\n\n        // Transfer tokens from user\n        require(token.transferFrom(listing.owner, this, _amount), \"Token transfer failed.\");\n\n        emit _Application(_listingHash, _amount, _data, msg.sender);\n    }\n\n    // challenges a listing from being whitelisted\n    function challenge(bytes32 _listingHash, uint _amount)\n        external returns (uint challengeId) {\n        Listing storage listing = listings[_listingHash];\n\n        // Listing must be in apply stage or already on the whitelist\n        require(appWasMade(_listingHash) || listing.whitelisted, \"Listing does not exist.\");\n        \n        // Prevent multiple challenges\n        require(listing.challengeId == 0 || challenges[listing.challengeId].resolved, \"Listing is already challenged.\");\n\n        // check if apply stage is active\n        /* solium-disable-next-line security/no-block-members */\n        require(listing.applicationExpiry > now, \"Apply stage has passed.\");\n\n        // check if enough amount is staked for challenge\n        require(_amount >= listing.deposit, \"Not enough stake passed for challenge.\");\n        \n        pollNonce = pollNonce + 1;\n        challenges[pollNonce] = Challenge({\n            challenger: msg.sender,\n            stake: _amount,\n            resolved: false,\n            totalTokens: 0,\n            rewardPool: 0\n        });\n\n        // create a new poll for the challenge\n        polls[pollNonce] = Poll({\n            votesFor: 0,\n            votesAgainst: 0,\n            passed: false,\n            commitEndDate: now.add(commitStageLen) /* solium-disable-line security/no-block-members */\n        });\n\n        // Updates listingHash to store most recent challenge\n        listing.challengeId = pollNonce;\n\n        // Transfer tokens from challenger\n        require(token.transferFrom(msg.sender, this, _amount), \"Token transfer failed.\");\n\n        emit _Challenge(_listingHash, pollNonce, msg.sender);\n        return pollNonce;\n    }\n\n    // commits a vote for/against a listing\n    // plcr voting is not being used here\n    // to keep it simple, we just store the choice as a bool - true is for and false is against\n    function vote(bytes32 _listingHash, uint _amount, bool _choice) public {\n        Listing storage listing = listings[_listingHash];\n\n        // Listing must be in apply stage or already on the whitelist\n        require(appWasMade(_listingHash) || listing.whitelisted, \"Listing does not exist.\");\n\n        // Check if listing is challenged\n        require(listing.challengeId > 0 && !challenges[listing.challengeId].resolved, \"Listing is not challenged.\");\n\n        Poll storage poll = polls[listing.challengeId];\n\n        // check if commit stage is active\n        /* solium-disable-next-line security/no-block-members */\n        require(poll.commitEndDate > now, \"Commit period has passed.\");\n\n        // Transfer tokens from voter\n        require(token.transferFrom(msg.sender, this, _amount), \"Token transfer failed.\");\n\n        if(_choice) {\n            poll.votesFor += _amount;\n        } else {\n            poll.votesAgainst += _amount;\n        }\n\n        // TODO: fix vote override when same person is voing again\n        poll.votes[msg.sender] = Vote({\n            value: _choice,\n            stake: _amount,\n            claimed: false\n        });\n\n        emit _Vote(_listingHash, listing.challengeId, msg.sender);\n    }\n\n    // check if the listing can be whitelisted\n    function canBeWhitelisted(bytes32 _listingHash) public view returns (bool) {\n        uint challengeId = listings[_listingHash].challengeId;\n\n        // Ensures that the application was made,\n        // the application period has ended,\n        // the listingHash can be whitelisted,\n        // and either: the challengeId == 0, or the challenge has been resolved.\n        /* solium-disable */\n        if (appWasMade(_listingHash) && \n            listings[_listingHash].applicationExpiry < now && \n            !isWhitelisted(_listingHash) &&\n            (challengeId == 0 || challenges[challengeId].resolved == true)) {\n            return true; \n        }\n\n        return false;\n    }\n\n    // updates the status of a listing\n    function updateStatus(bytes32 _listingHash) public {\n        if (canBeWhitelisted(_listingHash)) {\n            listings[_listingHash].whitelisted = true;\n        } else {\n            resolveChallenge(_listingHash);\n        }\n    }\n\n    // ends a poll and returns if the poll passed or not\n    function endPoll(uint challengeId) private returns (bool didPass) {\n        require(polls[challengeId].commitEndDate > 0, \"Poll does not exist.\");\n        Poll storage poll = polls[challengeId];\n\n        // check if commit stage is active\n        /* solium-disable-next-line security/no-block-members */\n        require(poll.commitEndDate < now, \"Commit period is active.\");\n\n        if (poll.votesFor >= poll.votesAgainst) {\n            poll.passed = true;\n        } else {\n            poll.passed = false;\n        }\n\n        return poll.passed;\n    }\n\n    // resolves a challenge and calculates rewards\n    function resolveChallenge(bytes32 _listingHash) private {\n        // Check if listing is challenged\n        Listing memory listing = listings[_listingHash];\n        require(listing.challengeId > 0 && !challenges[listing.challengeId].resolved, \"Listing is not challenged.\");\n\n        uint challengeId = listing.challengeId;\n\n        // end the poll\n        bool pollPassed = endPoll(challengeId);\n\n        // updated challenge status\n        challenges[challengeId].resolved = true;\n\n        address challenger = challenges[challengeId].challenger;\n\n        // Case: challenge failed\n        if (pollPassed) {\n            challenges[challengeId].totalTokens = polls[challengeId].votesFor;\n            challenges[challengeId].rewardPool = challenges[challengeId].stake + polls[challengeId].votesAgainst;\n            listings[_listingHash].whitelisted = true;\n        } else { // Case: challenge succeeded\n            // give back the challenge stake to the challenger\n            require(token.transfer(challenger, challenges[challengeId].stake), \"Challenge stake return failed.\");\n            challenges[challengeId].totalTokens = polls[challengeId].votesAgainst;\n            challenges[challengeId].rewardPool = listing.deposit + polls[challengeId].votesFor;\n            delete listings[_listingHash];\n            delete listingNames[listing.arrIndex];\n        }\n\n        emit _ResolveChallenge(_listingHash, challengeId, msg.sender);\n    }\n\n    // claim rewards for a vote\n    function claimRewards(uint challengeId) public {\n        // check if challenge is resolved\n        require(challenges[challengeId].resolved == true, \"Challenge is not resolved.\");\n        \n        Poll storage poll = polls[challengeId];\n        Vote storage voteInstance = poll.votes[msg.sender];\n        \n        // check if vote reward is already claimed\n        require(voteInstance.claimed == false, \"Vote reward is already claimed.\");\n\n        // if winning party, calculate reward and transfer\n        if((poll.passed && voteInstance.value) || (!poll.passed && !voteInstance.value)) {\n            uint reward = (challenges[challengeId].rewardPool.div(challenges[challengeId].totalTokens)).mul(voteInstance.stake);\n            uint total = voteInstance.stake.add(reward);\n            require(token.transfer(msg.sender, total), \"Voting reward transfer failed.\");\n            emit _RewardClaimed(challengeId, total, msg.sender);\n        }\n\n        voteInstance.claimed = true;\n    }\n}",
  "sourcePath": "/mnt/e/Code/simple-tcr/contracts/tcr.sol",
  "compiler": {
    "name": "solc",
    "version": "0.4.24+commit.e67f0147.Emscripten.clang"
  },
  "schemaVersion": "2.0.1",
  "updatedAt": "2018-11-02T20:39:18.785Z"
}